:020000040800F2
:1000000000500020E56F00083570000835700008CA
:1000100035700008357000083570000800000000D9
:10002000000000000000000000000000F141000896
:100030003570000800000000F14200083943000854
:1000400035700008357000083570000835700008FC
:100050003570000835700008A1130008BD130008B2
:10006000D9130008F51300081114000835700008B2
:1000700035700008357000083570000835700008CC
:1000800035700008357000083570000835700008BC
:100090003570000835700008357000082D14000810
:1000A000357000083570000835700008357000089C
:1000B00071200008357000083570000835700008A0
:1000C000357000083570000835700008051F0008FD
:1000D000691F0008E5250008F92500080D2600081D
:1000E000B9140008357000080000000035700008E1
:1000F000357000083570000835700008357000084C
:10010000357000083570000835700008357000083B
:10011000357000083570000835700008357000082B
:10012000357000083570000835700008357000081B
:1001300010B5054C237833B9044B13B10448AFF321
:1001400000800123237010BD340200200000000055
:10015000189D000808B5034B1BB103490348AFF3D2
:10016000008008BD0000000038020020189D000833
:10017000034613F8012B002AFBD1181A01387047E7
:1001800081F0004102E000BF83F0004330B54FEA48
:1001900041044FEA430594EA050F08BF90EA020FB5
:1001A0001FBF54EA000C55EA020C7FEA645C7FEA48
:1001B000655C00F0E2804FEA5454D4EB5555B8BF6B
:1001C0006D420CDD2C4480EA020281EA030382EADC
:1001D000000083EA010180EA020281EA0303362D6E
:1001E00088BF30BD11F0004F4FEA01314FF4801C41
:1001F0004CEA113102D0404261EB410113F0004F53
:100200004FEA03334CEA133302D0524263EB430309
:1002100094EA050F00F0A780A4F10104D5F1200EA7
:100220000DDB02FA0EFC22FA05F2801841F1000102
:1002300003FA0EF2801843FA05F359410EE0A5F1D6
:1002400020050EF1200E012A03FA0EFC28BF4CF007
:10025000020C43FA05F3C01851EBE37101F00045BD
:1002600007D54FF0000EDCF1000C7EEB00006EEBCA
:100270000101B1F5801F1BD3B1F5001F0CD3490854
:100280005FEA30004FEA3C0C04F101044FEA4452AB
:1002900012F5800F80F09A80BCF1004F08BF5FEA32
:1002A000500C50F1000041EB045141EA050130BD12
:1002B0005FEA4C0C404141EB0101013C28BFB1F524
:1002C000801FE9D291F0000F04BF01460020B1FA6F
:1002D00081F308BF2033A3F10B03B3F120020CDA42
:1002E0000C3208DD02F1140CC2F10C0201FA0CF020
:1002F00021FA02F10CE002F11402D8BFC2F1200C85
:1003000001FA02F120FA0CFCDCBF41EA0C0190403A
:10031000E41AA2BF01EB0451294330BD6FEA040483
:100320001F3C1CDA0C340EDC04F11404C4F120026E
:1003300020FA04F001FA02F340EA030021FA04F380
:1003400045EA030130BDC4F10C04C4F1200220FAD7
:1003500002F001FA04F340EA0300294630BD21FA15
:1003600004F0294630BD94F0000F83F4801306BFDB
:1003700081F480110134013D4EE77FEA645C18BFCF
:100380007FEA655C29D094EA050F08BF90EA020F66
:1003900005D054EA000C04BF1946104630BD91EA5E
:1003A000030F1EBF0021002030BD5FEA545C05D161
:1003B0004000494128BF41F0004130BD14F58004A0
:1003C0003CBF01F5801130BD01F0004545F0FE4114
:1003D00041F470014FF0000030BD7FEA645C1ABF49
:1003E000194610467FEA655C1CBF0B46024650EA80
:1003F000013406BF52EA033591EA030F41F40021AC
:1004000030BD00BF90F0000F04BF0021704730B531
:100410004FF4806404F132044FF000054FF0000106
:1004200050E700BF90F0000F04BF0021704730B5C7
:100430004FF4806404F1320410F0004548BF40429C
:100440004FF000013EE700BF42004FEAE2014FEAF1
:1004500031014FEA02701FBF12F07F4393F07F4FCC
:1004600081F06051704732F07F4208BF704793F0CF
:100470007F4F04BF41F40021704730B54FF46074E2
:1004800001F0004521F000411CE700BF50EA0102E5
:1004900008BF704730B54FF000050AE050EA01028E
:1004A00008BF704730B511F0004502D5404261EBFE
:1004B00041014FF4806404F132045FEA915C3FF43F
:1004C000D8AE4FF003025FEADC0C18BF03325FEADC
:1004D000DC0C18BF033202EBDC02C2F1200300FA8D
:1004E00003FC20FA02F001FA03FE40EA0E0021FAB2
:1004F00002F11444BDE600BF70B54FF0FF0C4CF4A0
:10050000E06C1CEA11541DBF1CEA135594EA0C0F51
:1005100095EA0C0F00F0DEF82C4481EA030621EA8C
:100520004C5123EA4C5350EA013518BF52EA0335C7
:1005300041F4801143F4801338D0A0FB02CE4FF079
:100540000005E1FB02E506F00042E0FB03E54FF0A9
:100550000006E1FB03569CF0000F18BF4EF0010EA1
:10056000A4F1FF04B6F5007F64F5407404D25FEA9D
:100570004E0E6D4146EB060642EAC62141EA555150
:100580004FEAC52040EA5E504FEACE2EB4F1FD0C92
:1005900088BFBCF5E06F1ED8BEF1004F08BF5FEA10
:1005A000500E50F1000041EB045170BD06F00046C2
:1005B00046EA010140EA020081EA0301B4EB5C046F
:1005C000C2BFD4EB0C0541EA045170BD41F4801167
:1005D0004FF0000E013C00F3AB8014F1360FDEBF8C
:1005E000002001F0004170BDC4F10004203C35DA68
:1005F0000C341BDC04F11404C4F1200500FA05F3EB
:1006000020FA04F001FA05F240EA020001F000428B
:1006100021F0004110EBD37021FA04F642EB060101
:100620005EEA430E08BF20EAD37070BDC4F10C042B
:10063000C4F1200500FA04F320FA05F001FA04F2EF
:1006400040EA020001F0004110EBD37041F10001DB
:100650005EEA430E08BF20EAD37070BDC4F12005E6
:1006600000FA05F24EEA020E20FA04F301FA05F24E
:1006700043EA020321FA04F001F0004121FA04F2F6
:1006800020EA020000EBD3705EEA430E08BF20EAC6
:10069000D37070BD94F0000F0FD101F00046400000
:1006A00041EB010111F4801F08BF013CF7D041EA82
:1006B000060195F0000F18BF704703F00046520086
:1006C00043EB030313F4801F08BF013DF7D043EA57
:1006D0000603704794EA0C0F0CEA135518BF95EA0D
:1006E0000C0F0CD050EA410618BF52EA4306D1D194
:1006F00081EA030101F000414FF0000070BD50EAB3
:10070000410606BF1046194652EA430619D094EA3C
:100710000C0F02D150EA013613D195EA0C0F05D126
:1007200052EA03361CBF104619460AD181EA03017A
:1007300001F0004141F0FE4141F470014FF0000032
:1007400070BD41F0FE4141F4780170BD70B54FF0CD
:10075000FF0C4CF4E06C1CEA11541DBF1CEA13554D
:1007600094EA0C0F95EA0C0F00F0A7F8A4EB05042F
:1007700081EA030E52EA03354FEA013100F0888026
:100780004FEA03334FF0805545EA131343EA1263EF
:100790004FEA022245EA111545EA10654FEA0026A4
:1007A0000EF000419D4208BF964244F1FD0404F55D
:1007B000407402D25B084FEA3202B61A65EB0305B9
:1007C0005B084FEA32024FF480104FF4002CB6EB76
:1007D000020E75EB030E22BFB61A754640EA0C00F6
:1007E0005B084FEA3202B6EB020E75EB030E22BF36
:1007F000B61A754640EA5C005B084FEA3202B6EB77
:10080000020E75EB030E22BFB61A754640EA9C0035
:100810005B084FEA3202B6EB020E75EB030E22BF05
:10082000B61A754640EADC0055EA060E18D04FEAC3
:10083000051545EA16754FEA06164FEAC30343EA63
:1008400052734FEAC2025FEA1C1CC0D111F4801F30
:100850000BD141EA00014FF000004FF0004CB6E729
:1008600011F4801F04BF01430020B4F1FD0C88BFC8
:10087000BCF5E06F3FF6AFAEB5EB030C04BFB6EBD3
:10088000020C5FEA500C50F1000041EB045170BDC6
:100890000EF0004E4EEA113114EB5C04C2BFD4EBF3
:1008A0000C0541EA045170BD41F480114FF0000E77
:1008B000013C90E645EA060E8DE60CEA135594EAF3
:1008C0000C0F08BF95EA0C0F3FF43BAF94EA0C0FF6
:1008D0000AD150EA01347FF434AF95EA0C0F7FF46B
:1008E00025AF104619462CE795EA0C0F06D152EABF
:1008F00003353FF4FDAE1046194622E750EA4106A3
:1009000018BF52EA43067FF4C5AE50EA41047FF4B3
:100910000DAF52EA43057FF4EBAE12E74FF0FF3C18
:1009200006E000BF4FF0010C02E000BF4FF0010CE9
:100930004DF804CD4FEA410C7FEA6C5C4FEA430C62
:1009400018BF7FEA6C5C1BD001B050EA410C0CBFB1
:1009500052EA430C91EA030F02BF90EA020F002013
:10096000704710F1000F91EA030F58BF994208BF7A
:1009700090422CBFD8176FEAE37040F00100704737
:100980004FEA410C7FEA6C5C02D150EA013C07D18E
:100990004FEA430C7FEA6C5CD6D152EA033CD3D0D9
:1009A0005DF8040B704700BF8446104662468C46D3
:1009B0001946634600E000BF01B5FFF7B7FF002806
:1009C00048BF10F1000F01BD4DF808EDFFF7F4FF2F
:1009D0000CBF012000205DF808FB00BF4DF808EDBA
:1009E000FFF7EAFF34BF012000205DF808FB00BFDD
:1009F0004DF808EDFFF7E0FF94BF012000205DF8FF
:100A000008FB00BF4DF808EDFFF7CEFF94BF0120B3
:100A100000205DF808FB00BF4DF808EDFFF7C4FFAC
:100A200034BF012000205DF808FB00BF4FEA410CF5
:100A30007FEA6C5C02D150EA013C0AD14FEA430CD8
:100A40007FEA6C5C02D152EA033C02D14FF0000015
:100A500070474FF0010070474FEA410212F5001253
:100A600015D211D56FF47873B3EB625212D94FEAF5
:100A7000C12343F0004343EA505311F0004F23FADF
:100A800002F018BF404270474FF00000704750EA34
:100A9000013005D111F0004008BF6FF000407047F1
:100AA0004FF00000704700BF4A0011D212F500124B
:100AB00011D20DD56FF47873B3EB62520ED44FEAB6
:100AC000C12343F0004343EA505323FA02F0704736
:100AD0004FF00000704750EA013002D14FF0FF3074
:100AE00070474FF00000704780F0004002E000BF08
:100AF00081F0004142001FBF5FEA410392EA030F09
:100B00007FEA226C7FEA236C6AD04FEA1262D2EB52
:100B10001363C1BFD218414048404140B8BF5B4257
:100B2000192B88BF704710F0004F40F4000020F0F0
:100B30007F4018BF404211F0004F41F4000121F006
:100B40007F4118BF494292EA030F3FD0A2F1010250
:100B500041FA03FC10EB0C00C3F1200301FA03F18E
:100B600000F0004302D5494260EB4000B0F5000FB1
:100B700013D3B0F1807F06D340084FEA310102F170
:100B80000102FE2A51D2B1F1004F40EBC25008BF22
:100B900020F0010040EA03007047490040EB0000EC
:100BA000013A28BFB0F5000FEDD2B0FA80FCACF1ED
:100BB000080CB2EB0C0200FA0CF0AABF00EBC2501A
:100BC00052421843BCBFD0401843704792F0000F08
:100BD00081F4000106BF80F400000132013BB5E75B
:100BE0004FEA41037FEA226C18BF7FEA236C21D0D1
:100BF00092EA030F04D092F0000F08BF0846704736
:100C000090EA010F1CBF0020704712F07F4F04D103
:100C1000400028BF40F00040704712F100723CBF16
:100C200000F50000704700F0004343F0FE4040F440
:100C3000000070477FEA226216BF08467FEA2363FE
:100C40000146420206BF5FEA412390EA010F40F4E9
:100C5000800070474FF0000304E000BF10F0004335
:100C600048BF40425FEA000C08BF704743F096431C
:100C700001464FF000001CE050EA010208BF704737
:100C80004FF000030AE000BF50EA010208BF7047BE
:100C900011F0004302D5404261EB41015FEA010CD3
:100CA00002BF84460146002043F0B64308BFA3F1CB
:100CB0008053A3F50003BCFA8CF2083AA3EBC253AD
:100CC00010DB01FA02FC634400FA02FCC2F12002CC
:100CD000BCF1004F20FA02F243EB020008BF20F003
:100CE0000100704702F1200201FA02FCC2F1200269
:100CF00050EA4C0021FA02F243EB020008BF20EA5E
:100D0000DC7070474FF0FF0C1CEAD0521EBF1CEA8B
:100D1000D15392EA0C0F93EA0C0F6FD01A4480EA79
:100D2000010C400218BF5FEA41211ED04FF0006362
:100D300043EA501043EA5111A0FB01310CF000408E
:100D4000B1F5000F3EBF490041EAD3715B0040EAB4
:100D5000010062F17F02FD2A1DD8B3F1004F40EB84
:100D6000C25008BF20F00100704790F0000F0CF057
:100D7000004C08BF49024CEA502040EA51207F3A1B
:100D8000C2BFD2F1FF0340EAC250704740F40000F6
:100D90004FF00003013A5DDC12F1190FDCBF00F0E7
:100DA00000407047C2F10002410021FA02F1C2F195
:100DB000200200FA02FC5FEA310040F1000053EA31
:100DC0004C0308BF20EADC70704792F0000F00F07F
:100DD000004C02BF400010F4000F013AF9D040EA85
:100DE0000C0093F0000F01F0004C02BF490011F419
:100DF000000F013BF9D041EA0C018FE70CEAD15317
:100E000092EA0C0F18BF93EA0C0F0AD030F0004C96
:100E100018BF31F0004CD8D180EA010000F000404A
:100E2000704790F0000F17BF90F0004F084691F008
:100E3000000F91F0004F14D092EA0C0F01D1420242
:100E40000FD193EA0C0F03D14B0218BF084608D10B
:100E500080EA010000F0004040F0FE4040F4000055
:100E6000704740F0FE4040F4400070474FF0FF0CE8
:100E70001CEAD0521EBF1CEAD15392EA0C0F93EA2F
:100E80000C0F69D0A2EB030280EA010C49024FEA81
:100E9000402037D04FF0805343EA111143EA10133A
:100EA0000CF000408B4238BF5B0042F17D024FF4F2
:100EB000000C8B4224BF5B1A40EA0C00B3EB510FCD
:100EC00024BFA3EB510340EA5C00B3EB910F24BFB6
:100ED000A3EB910340EA9C00B3EBD10F24BFA3EB3B
:100EE000D10340EADC001B0118BF5FEA1C1CE0D103
:100EF000FD2A3FF650AF8B4240EBC25008BF20F0B6
:100F0000010070470CF0004C4CEA50207F32C2BF09
:100F1000D2F1FF0340EAC250704740F400004FF0A6
:100F20000003013A37E792F0000F00F0004C02BFD7
:100F3000400010F4000F013AF9D040EA0C0093F0A1
:100F4000000F01F0004C02BF490011F4000F013BFB
:100F5000F9D041EA0C0195E70CEAD15392EA0C0F63
:100F600008D142027FF47DAF93EA0C0F7FF470AF9B
:100F7000084676E793EA0C0F04D14B023FF44CAFDE
:100F800008466EE730F0004C18BF31F0004CCAD173
:100F900030F000427FF45CAF31F000437FF43CAFAF
:100FA0005FE700BF4FF0FF3C06E000BF4FF0010CD1
:100FB00002E000BF4FF0010C4DF804CD4FEA4002B3
:100FC0004FEA41037FEA226C18BF7FEA236C11D0FD
:100FD00001B052EA530C18BF90EA010F58BFB2EBB0
:100FE000030088BFC81738BF6FEAE17018BF40F030
:100FF000010070477FEA226C02D15FEA402C05D1E4
:101000007FEA236CE4D15FEA412CE1D05DF8040B68
:10101000704700BF844608466146FFE70FB5FFF7FB
:10102000C9FF002848BF10F1000F0FBD4DF808EDB3
:10103000FFF7F4FF0CBF012000205DF808FB00BFA4
:101040004DF808EDFFF7EAFF34BF012000205DF8FE
:1010500008FB00BF4DF808EDFFF7E0FF94BF01204B
:1010600000205DF808FB00BF4DF808EDFFF7D2FF48
:1010700094BF012000205DF808FB00BF4DF808ED8B
:10108000FFF7C8FF34BF012000205DF808FB00BF58
:1010900042000ED2B2F1FE4F0BD34FF09E03B3EBE2
:1010A000126209D44FEA002343F0004323FA02F00E
:1010B00070474FF00000704712F1610F01D14202FA
:1010C00002D14FF0FF3070474FF00000704700BF73
:1010D00080B483B000AF0346FB80FB88B3F5004FBC
:1010E00000F0A580B3F5004F00F3A380B3F5804F67
:1010F00000F09B80B3F5804F00F39B80B3F5005F59
:1011000000F09180B3F5005F00F39380B3F5805F4A
:1011100000F08780B3F5805F00F38B80B3F5006F3C
:101120007DD0B3F5006F00F38480B3F5806F74D089
:10113000B3F5806F7DDCB3F5007F6CD0B3F5007F35
:1011400077DCB3F5807F64D0B3F5807F71DC802BD2
:101150005DD0802B6DDC202B48DC002B69DD013B52
:101160001F2B66D801A252F823F000BFF31100082C
:10117000F711000833120008FB11000833120008B1
:101180003312000833120008FF1100083312000860
:10119000331200083312000833120008331200081B
:1011A000331200083312000803120008331200083B
:1011B00033120008331200083312000833120008FB
:1011C00033120008331200083312000833120008EB
:1011D00033120008331200083312000833120008DB
:1011E000331200083312000807120008402B0CD0FD
:1011F0001FE000231EE001231CE002231AE003236A
:1012000018E0042316E0052314E0062312E0072368
:1012100010E008230EE009230CE00A230AE00B2368
:1012200008E00C2306E00D2304E00E2302E00F2368
:1012300000E0002318460C37BD4680BC704700BF55
:1012400080B485B000AF78600023FB600023BB60F2
:101250000023FB600CE00023BB6002E0BB680133AD
:10126000BB60BB687A689A42F8D8FB680133FB60C0
:10127000FB6842F20F729342EDDD00BF00BF1437EE
:10128000BD4680BC7047000080B586B000AFF860F6
:10129000B9601346FB80BB682B4A93420BD1FB8895
:1012A000FF2B01D900234AE0FB881846FFF710FF07
:1012B0000346FB7520E0BB68244A93420CD1FB88AF
:1012C000032B01D900233AE0FB881846FFF700FF03
:1012D00003460833FB750FE0BB681D4A93420BD1F0
:1012E000FB883F2B01D9002329E0FB881846FFF734
:1012F000EFFE03460A33FB75FB883B820023BB7479
:1013000007F110031946B86800F0F0F9FA7DFB68A0
:101310005A63FB689B6843F00102FB689A60642093
:10132000FFF78EFFFB689B6843F00102FB689A6041
:10133000FB689B6843F00202FB689A600123184631
:101340001837BD4680BD00BF00080140000C0140B9
:101350000010014080B485B000AF78600023FB73BB
:101360007B681B6803F00203002B01D00123FB7391
:10137000FB7B18461437BD4680BC704780B487B0ED
:1013800000AFF860B9601346FB8000237B61FB6807
:10139000DB6C7B617B6918461C37BD4680BC70479F
:1013A00080B500AF034B01225A61034B1B6898477D
:1013B00000BF80BD000401405002002080B500AF96
:1013C000034B02225A61034B5B68984700BF80BD04
:1013D000000401405002002080B500AF034B0422FE
:1013E0005A61034B9B68984700BF80BD00040140D1
:1013F0005002002080B500AF034B08225A61034B16
:10140000DB68984700BF80BD000401405002002007
:1014100080B500AF034B10225A61034B1B699847FC
:1014200000BF80BD000401405002002080B500AF25
:101430001F4B5B6903F02003002B05D01C4B2022BF
:101440005A611C4B5B699847194B5B6903F0400379
:10145000002B05D0164B40225A61164B9B699847CA
:10146000134B5B6903F08003002B05D0104B8022E7
:101470005A61104BDB6998470D4B5B6903F480732D
:10148000002B06D00A4B4FF480725A61094B1B6A3D
:101490009847074B5B6903F40073002B06D0044B9D
:1014A0004FF400725A61034B5B6A984700BF80BDDE
:1014B000000401405002002080B500AF2D4B5B6955
:1014C00003F48063002B08D02A4B5B69294A43F45C
:1014D00080635361284B9B6A9847264B5B6903F4F2
:1014E0000063002B08D0234B5B69224A43F400635E
:1014F0005361214BDB6A98471E4B5B6903F48053B1
:10150000002B08D01B4B5B691A4A43F4805353618C
:10151000194B1B6B9847174B5B6903F40053002B67
:1015200008D0144B5B69134A43F400535361124BC8
:101530005B6B98470F4B5B6903F48043002B08D02B
:101540000C4B5B690B4A43F4804353610A4B9B6B22
:101550009847084B5B6903F48043002B08D0054B88
:101560005B69044A43F400435361034BDB6B9847C8
:1015700000BF80BD000401405002002080B483B051
:1015800000AF0346FB80FB88B3F5004F00F0A58059
:10159000B3F5004F00F3A380B3F5804F00F09B80BC
:1015A000B3F5804F00F39B80B3F5005F00F09180AE
:1015B000B3F5005F00F39380B3F5805F00F08780A0
:1015C000B3F5805F00F38B80B3F5006F7DD0B3F58A
:1015D000006F00F38480B3F5806F74D0B3F5806F33
:1015E0007DDCB3F5007F6CD0B3F5007F77DCB3F51D
:1015F000807F64D0B3F5807F71DC802B5DD0802B41
:101600006DDC202B48DC002B69DD013B1F2B66D8ED
:1016100001A252F823F000BF9F160008A31600088D
:10162000DF160008A7160008DF160008DF160008FE
:10163000DF160008AB160008DF160008DF160008EA
:10164000DF160008DF160008DF160008DF160008A6
:10165000DF160008AF160008DF160008DF160008C6
:10166000DF160008DF160008DF160008DF16000886
:10167000DF160008DF160008DF160008DF16000876
:10168000DF160008DF160008DF160008DF16000866
:10169000DF160008B3160008402B0CD01FE0002313
:1016A0001EE004231CE008231AE00C2318E010239A
:1016B00016E0142314E0182312E01C2310E000238A
:1016C0000EE004230CE008230AE00C2308E01023BA
:1016D00006E0142304E0182302E01C2300E00023AA
:1016E00018460C37BD4680BC704700BF80B586B039
:1016F00000AF7860396000233B613B681B88FF2B9B
:1017000001D87B6801E07B6804333B610023FB75F3
:101710003B681B881846FFF731FF0346FB733B69A4
:101720001B68FA7B0F2101FA02F2D2431A403B698F
:101730001A603B689B78072B0BD03B689B78062B85
:1017400007D03B689B78052B03D03B689B78042B24
:101750000ED13B689B78043B9B005AB23B68DB7818
:101760005BB213435BB2DBB203F00F03FB7531E0F6
:101770003B689B78002B03D03B689B78012B07D1FB
:101780003B689B789B00DBB203F00F03FB7521E005
:101790003B689B78082B07D13B689B789B00DBB2AA
:1017A00003F00F03FB7515E00823FB753B689B787E
:1017B000022B07D17B68DB683A6812881A437B6882
:1017C000DA6007E07B68DB683A681288D2431A4027
:1017D0007B68DA603B691B68F97DFA7B01FA02F2EB
:1017E0001A433B691A6000BF1837BD4680BD80B4FC
:1017F00085B000AF78600B467B807B689A687B88F9
:101800001340002B02D00123FB7301E00023FB7384
:10181000FB7B18461437BD4680BC704780B483B04C
:1018200000AF78600B467B8013467B707B78002B83
:1018300003D07A887B681A6102E07A887B685A61F3
:1018400000BF0C37BD4680BC7047000080B485B037
:1018500000AF0346FB710023FB73FB791F2B07D8F6
:10186000FB7901229A40124B1A600123FB7319E0A5
:10187000FB793F2B08D8FB79203B01229A400D4B86
:101880001A600123FB730DE0FB795F2B08D8FB790D
:10189000403B01229A40084B1A600123FB7301E090
:1018A0000023FB73FB7B18461437BD4680BC704792
:1018B00000E100E004E100E008E100E080B584B070
:1018C00000AF78600B21022000F026F90623BB73DD
:1018D0000123FB734FF48073BB8107F10C0319469E
:1018E0001248FFF703FF124B0F229A62104B4EF67D
:1018F0006022DA620E4B00225A620D4B9B690C4A41
:1019000043F0600393610A4B1B6A094A43F00303E7
:101910001362074B5B6C064A43F400435364044A6A
:101920007B68536300BF1037BD4680BD000801408F
:10193000002C014080B483B000AF7860034A7B681C
:10194000536300BF0C37BD4680BC7047002C01407C
:1019500080B485B000AF78607B68FB607B68002B4B
:1019600001D10123FB60084AFB68B2FBF3F3BB60C3
:10197000064ABB68D362054ABB685B08536300BF75
:101980001437BD4680BC704740420F00002C014018
:1019900080B400AF044B1B68034A43F0010313609B
:1019A00000BFBD4680BC7047002C014080B400AF32
:1019B000044B1B68034A23F00103136000BFBD46BC
:1019C00080BC7047002C014080B582B000AF7860C9
:1019D0000B46FB70FB780D2B0CD0FB781846FEF7FE
:1019E00021FD02460B4610461946FFF75DF80346F7
:1019F000DBB200E00423FB70FB7802331A467B68FD
:101A000002FB03F3074A934206D8FB7802331A46D7
:101A10007B6802FB03F300E0002318460837BD464D
:101A200080BD00BF00A24A0480B582B000AF002391
:101A3000FB71364B1B68354A23F480231360334B0C
:101A40001B68324A43F48033136000BF2F4B1B687E
:101A500003F40033002BF9D02D4B1B682C4A43F4C0
:101A60008033136000212B48FFF7AEFF0346002BA5
:101A700045D0274B264A1B681360254B244A1B6818
:101A80001360234B224A1B681360214B1B68204ABA
:101A900043F4804313601E4B1B681D4A23F47013EC
:101AA00013601B4B1A4A1B681360184B1B68174ABC
:101AB00043F08073136000BF144B1B6803F0007386
:101AC000002BF9D000BF114B1B6803F00073002BF3
:101AD000F9D00F4B1B680E4A23F0030313600C4B25
:101AE0001B680B4A43F00203136000BF084B1B68DE
:101AF00003F00803002BF9D00123FB7101E0002360
:101B0000FB71FB7918460837BD4680BD00100240C6
:101B10000410024000127A0080B485B000AF034682
:101B20000A46FB711346BB710023FB73FB79022B42
:101B300020D0022B2BDC002B02D0012B0DD026E075
:101B4000174B1B68BA79012101FA02F21146144AB7
:101B50000B4313600123FB731CE0124B1B68BA7923
:101B6000012101FA02F211460E4A0B4313600123D0
:101B7000FB730FE00C4B1B68BA79012101FA02F2EA
:101B80001146094A0B4313600123FB7302E0002353
:101B9000FB7300BFFB7B18461437BD4680BC704703
:101BA000141002401C1002401810024080B500AF13
:101BB00000210348FFF708FF0346184680BD00BF19
:101BC00000127A0080B500AFFFF7F0FF0346002255
:101BD000D340184680BD80B500AFFFF7F3FF034642
:101BE0000022D340184680BD80B500AFFFF7EAFF62
:101BF00003460022D340184680BD80B483B000AFB6
:101C000078607B689B685B08DBB203F00103DBB2A2
:101C100018460C37BD4680BC704780B483B000AF17
:101C200078607B689B68DBB203F00103DBB2184687
:101C30000C37BD4680BC704780B483B000AF78607D
:101C40007B689B681B09DBB203F00103DBB218461B
:101C50000C37BD4680BC704780B485B000AF78605B
:101C600039600023FB810023BB817B68244A9342B7
:101C700003D1244A3B68136006E07B68224A934202
:101C800002D1204A3B685360FB8943F04003FB814B
:101C90003B681A88FB891343FB813B685A88FB89A0
:101CA0001343FB813B689A88FB891343FB813B68A4
:101CB000DA88FB891343FB813B681A89FB8913434C
:101CC000FB813B685A89FB891343FB813B68DA89B6
:101CD000FB891343FB813B689A89FB891343FB8192
:101CE0003B681A8ABB891343BB81FA897B681A60F7
:101CF000BA897B685A6000BF1437BD4680BC704704
:101D0000003001408C0200200038014080B584B0D2
:101D100000AF78607B685B4A934254D15A4B1B6892
:101D20001B88042B29D10623BB732023BB810323EB
:101D3000FB7307F10C0319465448FFF7D7FC524BCD
:101D40001B685B88002B0BD10623BB734023BB8130
:101D50000323FB7307F10C0319464C48FFF7C6FC3D
:101D60000623BB738023BB810323FB7307F10C03A2
:101D700019464648FFF7BAFC7FE00123BB732023D6
:101D8000BB8107F10C0319464048FFF7AFFC3E4BFF
:101D90001B685B88002B09D10123BB738023BB81A7
:101DA00007F10C0319463948FFF7A0FC0623BB7363
:101DB0004023BB810323FB7307F10C03194633480F
:101DC000FFF794FC59E0304B5B681B88042B2CD147
:101DD0000623BB734FF40053BB810323FB7307F14E
:101DE0000C0319462A48FFF781FC274B1B685B88C8
:101DF000002B0CD10623BB734FF48043BB8103231C
:101E0000FB7307F10C0319462148FFF76FFC06230B
:101E1000BB734FF40043BB810323FB7307F10C0337
:101E200019461B48FFF762FC27E00123BB734FF400
:101E30000053BB8107F10C0319461548FFF756FC08
:101E4000114B1B685B88002B0AD10123BB734FF435
:101E50008043BB8107F10C0319460D48FFF746FC90
:101E60000623BB734FF40043BB810323FB7307F1CD
:101E70000C0319460648FFF739FC00BF1037BD4672
:101E800080BD00BF003001408C02002000080140EE
:101E9000000C014080B586B000AFF860B960134611
:101EA000FB800123FB82BB683B6100BFF868FFF742
:101EB000A4FE0346002BF9D03B691B781A46FB6849
:101EC000DA603B6901333B61FB8A0133FB8210E03E
:101ED000F868FFF792FE0346002B0AD03B691B7897
:101EE0001A46FB68DA603B6901333B61FB8A0133C8
:101EF000FB82FA8AFB889A42EAD900BF00BF1837F2
:101F0000BD4680BD80B582B000AF1548FFF775FEB5
:101F1000034603F00103DAB23B7962F300033B713D
:101F20000F48FFF77AFE034603F00103DAB23B796C
:101F300062F341033B710A48FFF77EFE034603F05C
:101F40000103DAB23B7962F382033B71054B1B68F4
:101F50005B693879984700BF0837BD4680BD00BF30
:101F6000003001408C02002080B582B000AF1548DF
:101F7000FFF743FE034603F00103DAB23B7962F355
:101F800000033B710F48FFF748FE034603F00103CF
:101F9000DAB23B7962F341033B710A48FFF74CFE2A
:101FA000034603F00103DAB23B7962F382033B712B
:101FB000054B5B685B693879984700BF0837BD46B9
:101FC00080BD00BF003801408C02002080B584B085
:101FD00000AF7860FFF7F6FD03461846FEF73AFEBD
:101FE000034679681846FEF78DFE03464FF082419E
:101FF0001846FEF73BFF03461846FEF725FA4FF05A
:102000000002194BFEF7A2FB02460B46104619468A
:10201000FEF74AFD0346FB60FB68B3F1807F1DD2EB
:10202000124B00229A60114AFB6853600F4B1B68E9
:102030000E4A43F00103136000BF0C4B1B6803F40E
:102040008033002BF9D0094B1B68084A23F00103A9
:102050001360064B00229A60012300E0002318461B
:102060001037BD4680BD00BF00408F4010E000E04B
:1020700080B400AF084B1B6803F57A73064A1360FF
:102080004FF080431B694FF0804223F0010313613E
:1020900000BFBD4680BC70479402002080B500AFF1
:1020A0001C20FFF7D3FB4FF08043DB684FF08042EA
:1020B00043F00103D3604FF0804343F67F629A629E
:1020C0004FF080434FF47A72DA6200BF80BD80B473
:1020D00000AF4FF080431B684FF0804243F0010394
:1020E000136000BFBD4680BC704780B400AF4FF0A6
:1020F00080431B684FF0804223F00103136000BF50
:10210000BD4680BC7047000080B400AF054B002284
:102110001A604FF0804300225A6200BFBD4680BC67
:10212000704700BF9402002080B400AF4FF080439E
:102130005A6A034B1B6813441846BD4680BC70475F
:102140009402002080B483B000AF78604FF08043E9
:1021500000225A624FF080430F229A624FF0804271
:102160007B68013BD3624FF080431B684FF0804295
:1021700043F00903136000BF4FF080431B6803F076
:102180000103002BF8D100BF00BF0C37BD4680BC57
:10219000704780B584B000AF78600023FB6006E034
:1021A0004FF47A70FFF7CEFFFB680133FB60FB68EA
:1021B0007A689A42F4D84FF080431B684FF080420F
:1021C00023F00803136000BF1037BD4680BD000038
:1021D00080B483B000AF78607B68084A934201D135
:1021E000002306E07B68064A934201D1012300E008
:1021F000022318460C37BD4680BC704700380140AA
:102200000044004080B586B000AF786039607868DF
:10221000FFF7DEFF0346FB74FB7C37493A6841F861
:1022200023207B68DB6843F400527B68DA607B68BC
:10223000DA683B681B681A437B68DA607B68DA6897
:102240003B689B681A437B68DA607B68DA683B68A6
:10225000DB681A437B68DA607B681A693B681B6934
:102260001A437B681A617B685A693B685B691A4349
:102270007B685A617B68214A934203D1FFF7B4FC23
:10228000786102E0FFF7A7FC78613B685B681B019F
:102290007A69B2FBF3F319017A6913469B00134480
:1022A0009A001A443B685B689B00B2FBF3F23B6800
:1022B0005B681B017869B0FBF3F3642000FB03F358
:1022C000D31A1B010E4AA2FB03235B0903F00F0381
:1022D0000B43FB607B68FA689A603B689B69002B44
:1022E00006D07B68DA683B689B691A437B68DA60D2
:1022F00000BF1837BD4680BD98020020003801405D
:102300001F85EB5180B586B000AFF860B96011460B
:102310001A460B46FB711346BB710123FB75F86827
:10232000FFF756FF0346BB7529E0FB79002B06D16A
:1023300000BFFB681B6803F08003002BF9D0BB7D56
:10234000134A52F823309B68B3F5805F0CD1BB6809
:102350001B88C3F30802FB685A60BB680233BB608A
:10236000FB7D0133FB750AE0BB681B88DAB2FB68B2
:102370005A60BB680233BB60FB7D0133FB75FA7D9D
:10238000BB799A42D1D900BF00BF1837BD4680BD86
:102390009802002080B487B000AFF860B9601146A1
:1023A0001A460B46FB711346BB710123FB7516E001
:1023B000FB79002B06D100BFFB681B6803F02003EC
:1023C000002BF9D0FB685B689BB2DBB29AB2BB68AA
:1023D0001A80BB680233BB60FB7D0133FB75FA7D5D
:1023E000BB799A42E4D900BF00BF1C37BD4680BC10
:1023F0007047000080B584B000AF78607B68734A96
:10240000934249D14FF40073BB810623BB7302236F
:10241000FB7307F10C0319466D48FFF767F94FF49A
:102420008063BB810123BB7307F10C031946684825
:10243000FFF75CF9674B1B685B69B3F5007F05D05C
:10244000644B1B685B69B3F5407F0AD14FF40063AE
:10245000BB810123BB7307F10C0319465C48FFF7EE
:1024600045F95C4B1B685B69B3F5807F06D0594B1F
:102470001B685B69B3F5407F40F0A3804FF4805345
:10248000BB810623BB730123FB7307F10C031946C1
:102490004F48FFF72BF994E07B684F4A934244D1B1
:1024A0000423BB810623BB730123FB7307F10C03D9
:1024B00019464748FFF71AF90823BB810123BB736C
:1024C00007F10C0319464248FFF710F9414B5B68CE
:1024D0005B69B3F5007F05D03E4B5B685B69B3F584
:1024E000407F09D10123BB810123BB7307F10C039A
:1024F00019463748FFF7FAF8364B5B685B69B3F566
:10250000807F05D0334B5B685B69B3F5407F58D162
:102510000223BB810623BB730123FB7307F10C036A
:1025200019462B48FFF7E2F84BE07B682B4A9342B1
:1025300047D14FF48063BB810623BB730123FB7338
:1025400007F10C0319462648FFF7D0F84FF4006353
:10255000BB810123BB7307F10C0319462048FFF729
:10256000C5F81C4B9B685B69B3F5007F05D0194B20
:102570009B685B69B3F5407F0AD14FF40053BB8180
:102580000123BB7307F10C0319461548FFF7AEF89A
:10259000104B9B685B69B3F5807F05D00D4B9B6842
:1025A0005B69B3F5407F0CD14FF48043BB810623B8
:1025B000BB730123FB7307F10C0319460848FFF7AF
:1025C00095F800BF1037BD4680BD00BF0038014000
:1025D00000080140980200200044004000480040EC
:1025E000000C014080B500AF024B1B68DB699847C7
:1025F00000BF80BD9802002080B500AF024B5B6831
:10260000DB69984700BF80BD9802002080B500AF0D
:10261000024B9B68DB69984700BF80BD9802002091
:1026200080B582B000AF182001F0C2FE78607B68F0
:10263000002B07D07B6800221A607B6804331846A1
:1026400000F038F97B6818460837BD4680BD0000A9
:1026500080B58CB000AFF860B9607A603B60FB6811
:102660007B620023BB6200233B6200F0C7FF7B6AF2
:102670001B68FB613A68B968F86900F0FAF8B8615C
:10268000BB69002B0ED0FB69FB620023BB637B6838
:10269000002B28D07B6A1A68BB68DB431A407B6A30
:1026A0001A6020E0BB6B002B04D1FB69FB620123A5
:1026B0003B6218E07B68002B03D0BB6A43F0807359
:1026C000BB623B68002B03D0BB6A43F08063BB62F4
:1026D0007B6A181DBA68BB6A1343BA6B194601F0CE
:1026E000E9F90023FB6200F097FF7861BB6B002BD8
:1026F00031D07B69002B07D1194B4FF080521A6003
:10270000BFF34F8FBFF36F8F01F090FCF862FB6A4D
:1027100003F00073002B1AD101F0B0FD7B6A1B6837
:10272000FB623A68B968F86A00F0A3F80346002B28
:1027300009D07B68002B06D07B6A1A68BB68DB4334
:102740001A407B6A1A6001233B6201F0B1FDFB6A0B
:1027500023F07F43FB62FB6A18463037BD4680BDDD
:1027600004ED00E080B584B000AF786039607B682C
:10277000FB6001F083FDFB681B68BB60FB681A68A7
:102780003B68DB431A40FB681A6001F091FDBB68AF
:1027900018461037BD4680BD80B58CB000AF78605C
:1027A00039600023BB627B683B6200237B623B6A2B
:1027B0000433FB61FB690833BB6100F01FFFFB6959
:1027C000DB68FB623B6A1A683B681A433B6A1A6023
:1027D0003CE0FB6A5B687B61FB6A1B683B61002332
:1027E0007B623B6903F07F43FB603B6923F07F43DF
:1027F0003B61FB6803F08063002B08D13B6A1A68D9
:102800003B691340002B0BD001237B6208E03B6A3D
:102810001A683B6913403A699A4201D101237B62ED
:102820007B6A002B10D0FB6803F08073002B03D071
:10283000BA6A3B691343BB623B6A1B6843F000738F
:102840001946F86A01F036FA7B69FB62FA6ABB69DD
:102850009A42BED13B6A1A68BB6ADB431A403B6AA4
:102860001A6000F0D9FE3B6A1B6818463037BD4637
:1028700080BD80B487B000AFF860B9607A60002393
:102880007B617B68002B07D1FA68BB681340002B83
:102890000AD001237B6107E0FA68BB681340BA687D
:1028A0009A4201D101237B617B6918461C37BD46E2
:1028B00080BC704780B483B000AF78607B6803F160
:1028C00008027B685A607B684FF0FF329A607B6831
:1028D00003F108027B68DA607B6803F108027B6819
:1028E0001A617B6800221A6000BF0C37BD4680BCAD
:1028F000704780B483B000AF78607B6800221A61B3
:1029000000BF0C37BD4680BC704780B485B000AFB7
:10291000786039607B685B68FB603B68FA685A6086
:10292000FB689A683B689A60FB689B683A685A60E3
:10293000FB683A689A603B687A681A617B681B6832
:102940005A1C7B681A6000BF1437BD4680BC7047B4
:1029500080B485B000AF786039603B681B68BB60AD
:10296000BB68B3F1FF3F03D17B681B69FB600CE0E0
:102970007B680833FB6002E0FB685B68FB60FB6818
:102980005B681B68BA689A42F6D2FB685A683B6873
:102990005A603B685B683A689A603B68FA689A607C
:1029A000FB683A685A603B687A681A617B681B6802
:1029B0005A1C7B681A6000BF1437BD4680BC704744
:1029C00080B485B000AF78607B681B69FB607B6872
:1029D0005B687A6892689A607B689B687A685268DC
:1029E0005A60FB685B687A689A4203D17B689A6890
:1029F000FB685A607B6800221A61FB681B685A1EDC
:102A0000FB681A60FB681B6818461437BD4680BC1B
:102A10007047000080B584B000AF78603960012352
:102A2000FB607B68BB60BB68002B5DD0BB68DB6B69
:102A3000002B59D0BB681A6CBB68DB6B0021A3FB71
:102A40000223002B00D001210B46002B4CD101F0BA
:102A500015FCBB681A68BB68DB6BB968096C01FBC5
:102A600003F31A44BB689A60BB6800229A63BB6890
:102A70001A68BB685A60BB681A68BB68DB6B013BAD
:102A8000B968096C01FB03F31A44BB68DA60BB68E0
:102A9000FF2283F84420BB68FF2283F845203B686F
:102AA000002B14D1BB681B69002B1AD0BB681033F4
:102AB000184601F037F80346002B12D00E4B4FF0AA
:102AC00080521A60BFF34F8FBFF36F8F09E0BB686E
:102AD00010331846FFF7EEFEBB6824331846FFF7A5
:102AE000E9FE01F0E5FB01E00023FB60FB6818460E
:102AF0001037BD4680BD00BF04ED00E080B58AB050
:102B000002AFF860B9601346FB710023FB61FB68FC
:102B1000002B2DD00021BA68FB68A3FB0223002BF9
:102B200000D001210B46002B22D1FB68BA6802FBC2
:102B300003F313F1490F1BD8FB68BA6802FB03F3D8
:102B4000BB61BB694833184601F032FCF861FB6990
:102B5000002B0DD0FB697B617B6948337B61FA797F
:102B6000FB69009313467A69B968F86800F005F8C4
:102B7000FB6918462037BD4680BD80B584B000AFE4
:102B8000F860B9607A60FB70BB68002B03D1BB6949
:102B9000BA691A6002E0BB697A681A60BB69FA68B0
:102BA000DA63BB69BA681A640121B869FFF732FFBA
:102BB00000BF1037BD4680BD80B58AB000AFF86059
:102BC000B9607A603B6000237B62FB683B6201F086
:102BD00055FB3B6A9A6B3B6ADB6B9A4202D33B68BC
:102BE000022B29D13A68B968386A00F031F9F861E6
:102BF0003B6A5B6A002B10D03B6A2433184600F016
:102C000091FF0346002B13D03F4B4FF080521A60C8
:102C1000BFF34F8FBFF36F8F0AE0FB69002B07D024
:102C2000394B4FF080521A60BFF34F8FBFF36F8F55
:102C300001F03EFB012363E07B68002B03D101F030
:102C400037FB00235CE07B6A002B06D107F11403FD
:102C5000184601F0CFF801237B6201F029FB00F058
:102C6000CDFC01F00BFB3B6A93F844305BB2B3F14F
:102C7000FF3F03D13B6A002283F844203B6A93F86C
:102C800045305BB2B3F1FF3F03D13B6A002283F8CA
:102C9000452001F00DFB3A1D07F1140311461846BB
:102CA00001F0BEF80346002B24D1386A00F0BAF9CF
:102CB0000346002B18D03B6A10337A681146184639
:102CC00000F0E2FE386A00F045F900F0A5FC03468A
:102CD000002B7FF47CAF0C4B4FF080521A60BFF397
:102CE0004F8FBFF36F8F72E7386A00F033F900F04F
:102CF00093FC6CE7386A00F02DF900F08DFC00239E
:102D000018462837BD4680BD04ED00E080B58AB086
:102D100000AFF860B9607A6000237B62FB683B62B9
:102D200001F0ACFA3B6A9B6BFB61FB69002B1FD087
:102D3000B968386A00F0E8F8FB695A1E3B6A9A6382
:102D40003B6A1B69002B0FD03B6A1033184600F01A
:102D5000E9FE0346002B07D03C4B4FF080521A602F
:102D6000BFF34F8FBFF36F8F01F0A2FA012369E029
:102D70007B68002B03D101F09BFA002362E07B6AA1
:102D8000002B06D107F11403184601F033F8012394
:102D90007B6201F08DFA00F031FC01F06FFA3B6AC2
:102DA00093F844305BB2B3F1FF3F03D13B6A00229A
:102DB00083F844203B6A93F845305BB2B3F1FF3FA0
:102DC00003D13B6A002283F8452001F071FA3A1DD5
:102DD00007F114031146184601F022F80346002BB0
:102DE00023D1386A00F008F90346002B17D03B6A5C
:102DF00024337A681146184600F046FE386A00F01F
:102E0000A9F800F009FC0346002B89D10F4B4FF0C5
:102E100080521A60BFF34F8FBFF36F8F80E7386A1D
:102E200000F098F800F0F8FB7AE7386A00F092F8C2
:102E300000F0F2FB386A00F0DFF80346002B3FF4A5
:102E40006FAF002318462837BD4680BD04ED00E073
:102E500080B586B000AFF860B9607A6000233B614E
:102E6000FB689B6B7B61FB681B6C002B43D07B6812
:102E7000002B19D1FB685868FB681B6C1A46B968AF
:102E800004F0B0FFFB685A68FB681B6C1A44FB68CF
:102E90005A60FB685A68FB689B689A422BD3FB68B0
:102EA0001A68FB685A6026E0FB68D868FB681B6CF0
:102EB0001A46B96804F096FFFB68DA68FB681B6C79
:102EC0005B421A44FB68DA60FB68DA68FB681B68DF
:102ED0009A4207D2FB689A68FB681B6C5B421A44F3
:102EE000FB68DA607B68022B05D17B69002B02D07E
:102EF0007B69013B7B617B695A1CFB689A633B6978
:102F000018461837BD4680BD80B582B000AF7860E6
:102F100039607B681B6C002B18D07B68DA687B6893
:102F20001B6C1A447B68DA607B68DA687B689B6894
:102F30009A4203D37B681A687B68DA607B68D96839
:102F40007B681B6C1A46386804F04CFF00BF0837DA
:102F5000BD4680BD80B584B000AF786001F08EF9C9
:102F60007B6893F84530FB7311E07B685B6A002B4C
:102F700012D07B682433184600F0D4FD0346002BA2
:102F800001D000F097FFFB7B013BDBB2FB7397F9AD
:102F90000F30002BE9DC00E000BF7B68FF2283F8E4
:102FA000452001F085F901F069F97B6893F8443018
:102FB000BB7311E07B681B69002B12D07B68103358
:102FC000184600F0AFFD0346002B01D000F072FF61
:102FD000BB7B013BDBB2BB7397F90E30002BE9DC06
:102FE00000E000BF7B68FF2283F8442001F060F915
:102FF00000BF1037BD4680BD80B584B000AF78609B
:1030000001F03CF97B689B6B002B02D10123FB6034
:1030100001E00023FB6001F04BF9FB681846103714
:10302000BD4680BD80B584B000AF786001F026F960
:103030007B689A6B7B68DB6B9A4202D10123FB6051
:1030400001E00023FB6001F033F9FB6818461037FC
:10305000BD4680BD80B58CB004AFF860B9603B6000
:103060001346FB80FB889B00184601F0A1F97861AC
:103070007B69002B0ED04C2001F09AF9F861FB69B6
:10308000002B03D0FB697A691A6305E0786901F0C7
:103090003DFA01E00023FB61FB69002B13D0FA88A5
:1030A00000230393FB690293FB6A0193BB6A0093BD
:1030B0003B68B968F86800F00EF8F86900F084F829
:1030C0000123BB6102E04FF0FF33BB61BB691846CF
:1030D0002037BD4680BD80B586B000AFF860B960CE
:1030E0007A603B60BB6A1A6B7B6803F18043013BEB
:1030F0009B0013443B613B6923F007033B61BB68C2
:10310000002B1FD000237B6112E0BA687B69134457
:103110001978BA6A7B69134434330A461A70BA685C
:103120007B6913441B78002B06D07B6901337B61DC
:103130007B690F2BE9D900E000BFBB6A002283F84E
:10314000432003E0BB6A002283F834203B6A042B4F
:1031500001D904233B62BB6A3A6ADA62BB6A043370
:103160001846FFF7C6FBBB6A18331846FFF7C1FBCA
:10317000BB6ABA6A1A613B6AC3F10502BB6A9A610B
:10318000BB6ABA6A5A62BB6A4433042200211846F9
:1031900004F08BFDBB6A483301220021184604F07D
:1031A00084FD3A68F968386900F0D8FF0246BB6AC6
:1031B0001A607B6A002B02D07B6ABA6A1A6000BF71
:1031C0001837BD4680BD000080B584B000AF786080
:1031D00001F054F83E4B1B6801333D4A13603D4BF0
:1031E0001B68002B09D13B4A7B681360384B1B6876
:1031F000012B10D100F082FE0DE0374B1B68002B35
:1032000009D1344B1B68DA6A7B68DB6A9A4202D8C0
:10321000304A7B681360314B1B6801332F4A1360BF
:103220007B68DB6A01229A402D4B1B6813432C4AB2
:1032300013607B68DA6A2B4913469B0013449B009A
:103240000B4404331B68FB607B68FA689A60FB6878
:103250009A687B68DA60FB689B687A6804325A6017
:103260007B681A1DFB689A607B68DA6A13469B00CC
:1032700013449B001B4A1A447B685A617B68DA6AD4
:10328000184913469B0013449B000B441B68591CB0
:10329000144813469B0013449B000344196001F03B
:1032A00007F80D4B1B68002B0ED00A4B1B68DA6A1F
:1032B0007B68DB6A9A4207D20B4B4FF080521A6050
:1032C000BFF34F8FBFF36F8F00BF1037BD4680BD78
:1032D0007C030020A4020020880300209803002023
:1032E00084030020A802002004ED00E080B584B033
:1032F00000AF78600023FB607B68002B08D000F0F3
:103300007DF90021786800F0A9FE00F085F9F860E9
:10331000FB68002B07D1064B4FF080521A60BFF3B9
:103320004F8FBFF36F8F00BF1037BD4680BD00BF0A
:1033300004ED00E080B584B000AF786000F09EFF3F
:103340007B68002B02D13B4B1B6800E07B68BB60B5
:10335000BB6804331846FFF733FB0346002B15D137
:10336000BB68DA6A344913469B0013449B000B4444
:103370001B68002B0AD1BB68DB6A012202FA03F347
:10338000DA432E4B1B6813402C4A1360BB689B6AC0
:10339000002B04D0BB6818331846FFF711FBBB683D
:1033A000043319462648FFF7B0FA0023FB6010E00B
:1033B000BA68FB68134448331B78DBB2012B05D194
:1033C000BA68FB681344483300221A70FB68013363
:1033D000FB60FB68002BEBDD00F06AFF194B1B68FC
:1033E000002B05D000F04AFF00F006FE00F060FF61
:1033F000104B1B68BA689A4218D1124B1B68002BFD
:1034000008D0114B4FF080521A60BFF34F8FBFF3BB
:103410006F8F0BE00A4B1A680C4B1B689A4203D162
:10342000044B00221A6001E000F0E8FA00BF1037F8
:10343000BD4680BDA4020020A80200208403002015
:10344000680300208803002004ED00E07C030020D6
:1034500080B485B000AF78600023FB607B68BB6000
:10346000BB685B69094A93420AD1BB689B6A084AF8
:10347000934205D0BB689B6A002B01D10123FB60FE
:10348000FB6818461437BD4680BC704768030020AF
:103490003C03002080B584B000AF78607B68FB609F
:1034A000344B1B68FA689A425FD0FB68002B5CD0F3
:1034B00000F0E4FEF868FFF7CBFF0346002B52D084
:1034C000FB6804331846FFF77BFAFB68DB6A0122CE
:1034D0009A40294B1B681343274A1360FB68DA6A3A
:1034E000264913469B0013449B000B4404331B687E
:1034F000BB60FB68BA689A60BB689A68FB68DA6070
:10350000BB689B68FA6804325A60FB681A1DBB6886
:103510009A60FB68DA6A13469B0013449B00174AC3
:103520001A44FB685A61FB68DA6A144913469B0027
:1035300013449B000B441B68591C104813469B0006
:1035400013449B0003441960FB68DA6A094B1B684B
:10355000DB6A9A4207D30A4B4FF080521A60BFF3DE
:103560004F8FBFF36F8F00F0A3FE00BF1037BD4633
:1035700080BD00BFA402002084030020A802002018
:1035800004ED00E080B584B002AF154B0193002339
:1035900000930023802213491348FFF75BFD7860F6
:1035A0007B68012B15D14FF0BF0383F31188BFF364
:1035B0006F8FBFF34F8F3B6000BF0C4B4FF0FF325C
:1035C0001A600B4B01221A600A4B00221A6000F0AD
:1035D00035FE094B1B6800BF0837BD4680BD00BFE4
:1035E000A0030020309D0008CD3E00089C03002071
:1035F00088030020800300200000002080B400AF7A
:10360000044B1B680133034A136000BFBD4680BCF6
:10361000704700BFA403002080B586B000AF002330
:103620007B6100233B6100F029FE684B1B68013B76
:10363000664A1360654B1B68002B40F0C080644BEA
:103640001B68002B00F0BB808AE0624BDB68DB6804
:103650007B617B699B6ABB607B69DB697A69126A03
:103660009A607B691B6A7A69D2695A60BB685A683A
:103670007B6918339A4203D17B691A6ABB685A6026
:103680007B6900229A62BB681B685A1EBB681A607D
:103690007B695B697B607B699B687A69D2689A60A9
:1036A0007B69DB687A6992685A607B685A687B69D3
:1036B00004339A4203D17B69DA687B685A607B697C
:1036C00000225A617B681B685A1E7B681A607B69FE
:1036D000DB6A01229A40404B1B6813433E4A136049
:1036E0007B69DA6A3D4913469B0013449B000B44F7
:1036F00004331B683B607B693A689A603B689A6850
:103700007B69DA603B689B687A6904325A607B693E
:103710001A1D3B689A607B69DA6A13469B00134462
:103720009B002E4A1A447B695A617B69DA6A2B49ED
:1037300013469B0013449B000B441B68591C2748ED
:1037400013469B0013449B00034419607B69DA6AAB
:10375000234B1B68DB6A9A4202D3224B01221A6078
:103760001C4B1B68002B7FF470AF7B69002B01D0D2
:1037700000F042FC1C4B1B68FB60FB68002B10D068
:1037800000F036F80346002B02D0164B01221A60D7
:10379000FB68013BFB60FB68002BF1D1124B002260
:1037A0001A60104B1B68002B09D001233B610F4BA3
:1037B0004FF080521A60BFF34F8FBFF36F8F00F04E
:1037C00077FD3B6918461837BD4680BDA40300202D
:1037D0007C0300203C03002084030020A80200207A
:1037E000A4020020900300208C03002004ED00E0E0
:1037F00080B588B000AF0023FB61754B1B68002BC0
:1038000040F0DC80734B1B680133BB61714ABB69BC
:103810001360BB69002B10D16F4B1B687B616F4B32
:103820001B686D4A13606D4A7B6913606C4B1B68A3
:1038300001336B4A136000F0DFFB6A4B1B68BA6907
:103840009A42C0F0A680644B1B681B68002B04D111
:10385000644B4FF0FF321A609BE05F4B1B68DB68E4
:10386000DB683B613B695B68FB60BA69FB689A4255
:1038700003D25C4AFB6813608BE03B695B69BB6009
:103880003B699B683A69D2689A603B69DB683A6930
:1038900092685A60BB685A683B6904339A4203D104
:1038A0003B69DA68BB685A603B6900225A61BB68B1
:1038B0001B685A1EBB681A603B699B6A002B1ED0AE
:1038C0003B699B6A7B603B69DB693A69126A9A6073
:1038D0003B691B6A3A69D2695A607B685A683B69DE
:1038E00018339A4203D13B691A6A7B685A603B6974
:1038F00000229A627B681B685A1E7B681A603B69CB
:10390000DB6A01229A40384B1B681343364A136026
:103910003B69DA6A354913469B0013449B000B440C
:1039200004331B683B603B693A689A603B689A685D
:103930003B69DA603B689B683A6904325A603B69CC
:103940001A1D3B689A603B69DA6A13469B00134470
:103950009B00264A1A443B695A613B69DA6A23494B
:1039600013469B0013449B000B441B68591C1F48C3
:1039700013469B0013449B00034419603B69DA6AB9
:103980001B4B1B68DB6A9A42FFF45DAF0123FB61AE
:1039900059E7174B1B68DA6A144913469B00134416
:1039A0009B000B441B68012B01D90123FB61114BC8
:1039B0001B68002B07D00123FB6104E00E4B1B6842
:1039C00001330D4A1360FB6918462037BD4680BDA0
:1039D000A4030020800300203403002038030020CB
:1039E000940300209C03002084030020A8020020F0
:1039F000A4020020900300208C03002080B485B036
:103A000000AF1C4B1B68002B03D01B4B01221A601C
:103A10002AE0194B00221A60184B1B687B607B68F8
:103A2000B3FA83F3FB70FB78C3F11F03FB60FA6802
:103A300013469B0013449B00114A1344BB60BB68B0
:103A40005B685A68BB685A60BB685A68BB680833D1
:103A50009A4204D1BB685B685A68BB685A60BB680D
:103A60005B68DB68074A136000BF1437BD4680BC43
:103A7000704700BFA40300209003002084030020AF
:103A8000A8020020A402002080B582B000AF7860B8
:103A90003960074B1B68183319467868FEF758FFE2
:103AA0000121386800F0DAFA00BF0837BD4680BD52
:103AB000A402002080B586B000AFF860B9607A60DB
:103AC000174B1B68BA6842F000429A61FB685B685A
:103AD0007B61134B1B687A69DA61114B1B687A6949
:103AE00092681A620E4B1A687B699B6818325A609A
:103AF0000B4B1B6803F118027B699A60084B1B682B
:103B0000FA689A62FB681B685A1CFB681A600121FC
:103B1000786800F0A3FA00BF1837BD4680BD00BF2B
:103B2000A402002080B489B000AF78607B68DB68B5
:103B3000DB68BB61BB699B6A7B61BB69DB69BA6996
:103B4000126A9A60BB691B6ABA69D2695A607B695A
:103B50005A68BB6918339A4203D1BB691A6A7B69F8
:103B60005A60BB6900229A627B691B685A1E7B6996
:103B70001A604A4B1B68002B5ED1BB695B69FB6016
:103B8000BB699B68BA69D2689A60BB69DB68BA692D
:103B900092685A60FB685A68BB6904339A4203D141
:103BA000BB69DA68FB685A60BB6900225A61FB682E
:103BB0001B685A1EFB681A60BB69DB6A01229A40C7
:103BC000374B1B681343364A1360BB69DA6A3549C1
:103BD00013469B0013449B000B4404331B68BB60DB
:103BE000BB69BA689A60BB689A68BB69DA60BB68EF
:103BF0009B68BA6904325A60BB691A1DBB689A6037
:103C0000BB69DA6A13469B0013449B00254A1A4499
:103C1000BB695A61BB69DA6A224913469B001344A7
:103C20009B000B441B68591C1E4813469B00134401
:103C30009B00034419601BE01B4B5B683B61BB6945
:103C40003A69DA613B699A68BB691A623B699B68A9
:103C5000BA6918325A60BB6903F118023B699A606D
:103C6000BB69114A9A62104B1B6801330E4A1360FC
:103C7000BB69DA6A0D4B1B68DB6A9A4205D90123DE
:103C8000FB610B4B01221A6001E00023FB61FB6921
:103C900018462437BD4680BC704700BFA4030020EF
:103CA00084030020A80200203C030020A40200207E
:103CB0009003002080B487B000AF786039603B6823
:103CC00043F000427B681A607B68DB687B617B683D
:103CD0001B693B617B685B687A6892689A607B6865
:103CE0009B687A6852685A603B695B687A689A4256
:103CF00003D17B689A683B695A607B6800221A612D
:103D00003B691B685A1E3B691A607B695B69FB60F3
:103D10007B699B687A69D2689A607B69DB687A699B
:103D200092685A60FB685A687B6904339A4203D1EF
:103D30007B69DA68FB685A607B6900225A61FB681C
:103D40001B685A1EFB681A607B69DB6A01229A4075
:103D5000244B1B681343234A13607B69DA6A2249A8
:103D600013469B0013449B000B4404331B68BB6049
:103D70007B69BA689A60BB689A687B69DA60BB68DD
:103D80009B687A6904325A607B691A1DBB689A6025
:103D90007B69DA6A13469B0013449B00124A1A445B
:103DA0007B695A617B69DA6A0F4913469B001344A9
:103DB0009B000B441B68591C0B4813469B00134483
:103DC0009B00034419607B69DA6A084B1B68DB6A55
:103DD0009A4202D9064B01221A6000BF1C37BD4629
:103DE00080BC704784030020A8020020A4020020A9
:103DF0009003002080B483B000AF7860064B1A684F
:103E00007B681A60054B1A687B685A6000BF0C37E4
:103E1000BD4680BC704700BF940300208003002093
:103E200080B586B000AF7860396000F027FA1F4B8C
:103E30001B683B617B685B683A69D31AFB603B682F
:103E40001B68B3F1FF3F02D100237B6126E07B6852
:103E50001A68174B1B689A420AD07B685B683A69FC
:103E60009A4205D301237B613B6800221A6015E06A
:103E70003B681B68FA689A420BD23B681A68FB6879
:103E8000D21A3B681A607868FFF7B4FF00237B61A1
:103E900004E03B6800221A6001237B6100F008FA0D
:103EA0007B6918461837BD4680BD00BF80030020DF
:103EB0009403002080B400AF034B01221A6000BFBE
:103EC000BD4680BC704700BF9003002080B582B023
:103ED00000AF786000F052F8064B1B68012BF9D94F
:103EE000054B4FF080521A60BFF34F8FBFF36F8FB7
:103EF000F0E700BFA802002004ED00E080B582B02A
:103F000000AF00237B600CE07A6813469B001344EB
:103F10009B00124A13441846FEF7CCFC7B68013321
:103F20007B607B68042BEFD90D48FEF7C3FC0D487E
:103F3000FEF7C0FC0C48FEF7BDFC0C48FEF7BAFCCF
:103F40000B48FEF7B7FC0B4B054A1A600A4B054AB3
:103F50001A6000BF0837BD4680BD00BFA802002020
:103F60000C030020200300203C030020500300200D
:103F700068030020340300203803002080B582B09D
:103F800000AF19E000F07AF9104BDB68DB687B606A
:103F90007B6804331846FEF713FD0D4B1B68013B8D
:103FA0000B4A13600B4B1B68013B0A4A136000F07D
:103FB0007FF9786800F010F8064B1B68002BE1D100
:103FC00000BF00BF0837BD4680BD00BF50030020C2
:103FD0007C0300206403002080B582B000AF7860CD
:103FE0007B681B6B184600F091FA786800F08EFA37
:103FF00000BF0837BD4680BD80B400AF094B1B68C9
:104000001B68002B04D1084B4FF0FF321A6005E00B
:10401000044B1B68DB681B68034A136000BFBD4686
:1040200080BC7047340300209C03002080B483B020
:1040300000AF094B1B689B697B60074B1B68DA6A02
:10404000054B1B68C2F105029A617B6818460C3764
:10405000BD4680BC704700BFA402002080B586B07A
:1040600000AF78603960364B1B687B61354B1B684D
:1040700004331846FEF7A4FC0346002B0BD1314B4A
:104080001B68DB6A012202FA03F3DA432E4B1B683A
:1040900013402D4A13607B68B3F1FF3F24D13B6886
:1040A000002B21D0294B5B683B61264B1B683A698A
:1040B0009A60244B1B683A699268DA60214B1A684F
:1040C0003B699B6804325A601E4B1B681A1D3B6992
:1040D0009A601C4B1B681D4A5A611C4B1B680133BC
:1040E0001A4A136000BF26E07A697B681344FB60BC
:1040F000144B1B68FA685A60FA687B699A4209D2C5
:10410000134B1A680F4B1B68043319461046FEF711
:104110001FFC10E00F4B1A680A4B1B68043319464A
:104120001046FEF715FC0C4B1B68FA689A4202D247
:10413000094AFB68136000BF1837BD4680BD00BF49
:1041400080030020A40200208403002068030020D4
:1041500038030020340300209C03002080B485B085
:1041600000AFF860B9607A60FB68043BFB60FB68F5
:104170004FF080721A60FB68043BFB60BB6823F061
:104180000102FB681A60FB68043BFB60084AFB689D
:104190001A60FB68143BFB607A68FB681A60FB6876
:1041A000203BFB60FB6818461437BD4680BC704757
:1041B000B541000880B483B000AF00233B604FF0EE
:1041C000BF0383F31188BFF36F8FBFF34F8F7B6003
:1041D00000BF00BF3B68002BFCD000BF00BF0C3706
:1041E000BD4680BC704700000000000000000000D9
:1041F000074B19680868B0E8F00F80F30988BFF32F
:104200006F8F4FF0000080F311884EF00D0E704755
:10421000A402002000BF00BF06480068006880F3C9
:10422000088862B661B6BFF34F8FBFF36F8F00DFB0
:1042300000BF000008ED00E000BF00BF80B500AF88
:104240000C4B1B680B4A43F47F031360094B1B683C
:10425000084A43F07F43136000F090F8064B0022B9
:104260001A60FFF7D9FFFFF7C9FBFFF7A3FF002391
:10427000184680BD20ED00E00400002080B483B02B
:1042800000AF4FF0BF0383F31188BFF36F8FBFF30D
:104290004F8F7B6000BF054B1B680133034A1360DF
:1042A00000BF0C37BD4680BC704700BF0400002033
:1042B00080B483B000AF0A4B1B68013B084A13600F
:1042C000074B1B68002B05D100237B607B6883F3C1
:1042D000118800BF00BF0C37BD4680BC704700BFCF
:1042E00004000020000000000000000000000000AA
:1042F000EFF30980BFF36F8F0D4B1A6820E9F00FC1
:1043000010602DE908404FF0BF0080F31188FFF7DF
:1043100075FB4FF0000080F31188BDE80840196874
:104320000868B0E8F00F80F30988BFF36F8F70471B
:10433000A402002000BF00BF80B582B000AF4FF0E4
:10434000BF0383F31188BFF36F8FBFF34F8F7B6081
:1043500000BFFFF74DFA0346002B03D0064B4FF08A
:1043600080521A6000233B603B6883F3118800BFD2
:1043700000BF0837BD4680BD04ED00E080B400AF4B
:10438000084B00221A60084B00221A60074B43F6C4
:104390007F621A60034B07221A6000BFBD4680BCD3
:1043A000704700BF10E000E018E000E014E000E01B
:1043B00080B586B000AF78600023FB60FFF71EF980
:1043C0004C4B1B68002B01D100F0E0F84A4B1A68F7
:1043D0007B681340002B40F086807B68002B1ED04A
:1043E00008227B6813447A689A4218D208227B68B4
:1043F00013447B607B6803F00703002B11D07B68BC
:1044000023F0070308337A689A4205D27B6823F0C9
:10441000070308337B6004E000237B6001E0002396
:104420007B607B68002B5ED0344B1B687A689A42B5
:1044300059D8334B3B61324B1B687B6104E07B698D
:104440003B617B691B687B617B695B687A689A4228
:1044500003D97B691B68002BF1D1264B1B687A6955
:104460009A4240D03B691B6808221344FB607B6979
:104470001A683B691A607B695A687B68D21A0823FC
:104480005B009A420FD97A697B681344BB607B69F1
:104490005A687B68D21ABB685A607B697A685A602E
:1044A000B86800F0D5F8154B1A687B695B68D31AB9
:1044B000124A1360114B1A68124B1B689A4203D2BE
:1044C0000E4B1B680F4A13607B695A680A4B1B68C6
:1044D0001A437B695A607B6900221A600A4B1B6889
:1044E0000133094A1360FFF797F8FB68184618373D
:1044F000BD4680BDB0470020C4470020B44700201F
:10450000A8470020B8470020BC47002080B584B0F1
:1045100000AF78607B68FB607B68002B2CD00823A1
:104520005B42FA681344FB60FB68BB60BB685A6877
:10453000134B1B681340002B1ED0BB681B68002B5D
:104540001AD1BB685A680E4B1B68DB431A40BB6824
:104550005A60FFF753F8BB685A680A4B1B6813444C
:10456000084A1360B86800F073F8074B1B68013302
:10457000054A1360FFF750F800BF1037BD4680BDF5
:10458000C4470020B4470020C047002080B485B055
:1045900000AF4FF48843BB60274BFB60FB6803F020
:1045A0000703002B0CD0FB680733FB60FB6823F08C
:1045B0000703FB60BA68FB68D31A1F4A1344BB6049
:1045C000FB687B601D4A7B6813601C4B00225A60AD
:1045D0007B68BA681344FB600822FB689B1AFB6087
:1045E000FB6823F00703FB60FB68154A1360144B5C
:1045F0001B6800225A60124B1B6800221A607B68FD
:104600003B603B68FA68D21A3B685A600C4B1A68E8
:104610003B681A603B685B680A4A13603B685B68EA
:10462000094A1360094B4FF000421A6000BF14376B
:10463000BD4680BC704700BFA8030020A8470020EB
:10464000B0470020B8470020B4470020C4470020EE
:1046500080B485B000AF7860274BFB6002E0FB6858
:104660001B68FB60FB681B687A689A42F7D8FB6896
:10467000BB60FB685B68BA6813447A689A4208D1E9
:10468000FB685A687B685B681A44FB685A60FB6881
:104690007B607B68BB607B685B68BA681A44FB68B8
:1046A0001B689A4218D1FB681A68144B1B689A421F
:1046B0000DD07B685A68FB681B685B681A447B688E
:1046C0005A60FB681B681A687B681A6008E00B4B2D
:1046D0001A687B681A6003E0FB681A687B681A60D6
:1046E000FA687B689A4202D0FB687A681A6000BF59
:1046F0001437BD4680BC7047A8470020B047002053
:1047000080B582B000AF786039607868FDF720F935
:10471000FDF73EF93868FDF73CFD00BF0837BD46A0
:1047200080BD0000B0B48FB000AF0346FB7108231A
:104730003B63184A07F1280392E8030083E803006B
:10474000154B07F108041D460FCD0FC495E80F0067
:1047500084E80F0000237B6311E007F128027B6BE4
:1047600013441B78FA799A4206D17B6B9B0038334D
:104770003B4453F8303C07E07B6B01337B637A6B3F
:104780003B6B9A42E9DB002318463C37BD46B0BC80
:10479000704700BF389D0008409D000880B582B07A
:1047A00000AF00237B6033E0204A7B6813441B7812
:1047B0001A461F4B1B7802FB03F33B601D4A7B68C4
:1047C00013441B78202B04D13B681846FDF7E1FC0D
:1047D00011E0184A7B6813441B781846FFF7A2FFC4
:1047E00003461A463B6819461046FFF789FF3B68A7
:1047F0001846FDF7CEFC0E4B1B780F4AA2FB032395
:10480000DB08DBB21846FDF7C4FC7B6801337B6034
:104810007B68112BC8DD4EF66020FDF78BF8FDF7A5
:10482000C5F800BF0837BD4680BD00BF1C00002092
:104830002E00002008000020CDCCCCCC80B582B06A
:1048400000AF0346FB800B46BB8013467B80FB8892
:10485000B9887A88184600F08FFD00BF0837BD463A
:1048600080BD90B585B002AF0446084611461A4691
:104870002346FB800346BB800B467B8013463B8070
:10488000F888B9887A883C883B8B0093234600F0EF
:1048900069FE00BF0C37BD4690BD80B582B000AF49
:1048A0000346FB800B46BB8013467B807A88B7F9B2
:1048B0000410B7F906301846FFF7C0FF00BF0837ED
:1048C000BD4680BD90B589B000AF0446084611468C
:1048D0001A462346FB800346BB800B467B8013466B
:1048E0003B80B7F90020B7F90430D31A83EAE372AA
:1048F000A2EBE372B7F90210B7F90630CB1A002B1E
:10490000B8BF5B429A42CCBF01230023DBB27B835A
:10491000B7F91A30002B0BD0FB883B83BB88FB8098
:104920003B8BBB807B88FB823B887B80FB8A3B8008
:10493000B7F90620B7F902309A420BDDFB88BB823B
:104940007B88FB80BB8A7B80BB887B823B88BB806B
:104950007B8A3B807A88FB88D31A9BB23B82B7F96B
:104960000020B7F90430D31A002BB8BF5B42FB819B
:10497000B7F91030DA0F13445B10FB83B7F904204A
:10498000B7F900309A4202DA0123BB8331E04FF6D7
:10499000FF73BB832DE0B7F91A30002B08D03A8E95
:1049A000B7F90610B7F904301846FFF776FF07E0AD
:1049B0003A8EB7F90410B7F906301846FFF76DFFC5
:1049C000FA8BFB89D31A9BB2FB83B7F91E30002BFD
:1049D00009DABA88BB8B13449BB2BB80FA8B3B8A43
:1049E00013449BB2FB83B7F906309BB201339BB2F1
:1049F000FB80B7F90620B7F902309A42CBDD00BF41
:104A000000BF2437BD4690BD90B585B002AF0446C7
:104A1000084611461A462346FB800346BB800B46D8
:104A20007B8013463B80BA887B8813449BB2013B52
:104A30009BB21CB2B7F90620B7F90410B7F906000B
:104A40003B8800932346FFF73DFF00BF0C37BD4670
:104A500090BD90B585B002AF0446084611461A468F
:104A60002346FB800346BB800B467B8013463B807E
:104A7000FA887B8813449BB2013B9BB21AB2B7F908
:104A80000440B7F90410B7F906003B8800932346A9
:104A9000FFF718FF00BF0C37BD4690BD90B587B03B
:104AA00000AF0446084611461A462346FB800346DB
:104AB000BB800B467B8013467B707B88C3F1010370
:104AC0009BB2FB820123BB827B881A46D203D31A96
:104AD0005B009BB27B8200233B827B88FB813B8A0D
:104AE000BB81FB897B81B7F928309BB201339BB234
:104AF0003B8595E0B7F91630002B0EDBB7F90E3089
:104B00009BB2013B9BB2FB817B8A02339BB27B82CF
:104B1000FA8A7B8A13449BB2FB82B7F910309BB2AE
:104B200001339BB23B82BB8A02339BB2BB82FA8ABF
:104B3000BB8A13449BB2FB82B7F90E20B7F9103041
:104B40009A4231DB7B7803F00103002B13D0FA8803
:104B50003B8A13449BB218B2BA88FB89D31A9BB222
:104B600019B2FB895B009AB23B8D13449BB21AB217
:104B7000BB8DFFF749FF7B7803F00203002B13D0B6
:104B8000FA883B8AD31A9BB218B2BA88FB89D31A27
:104B90009BB219B2FB895B009AB23B8D13449BB266
:104BA0001AB2BB8DFFF730FFB7F90E20B7F90A3004
:104BB0009A4233D07B7803F00103002B13D0FA889C
:104BC0007B8913449BB218B2BA88BB89D31A9BB2B3
:104BD00019B2BB895B009AB23B8D13449BB21AB2E7
:104BE000BB8DFFF711FF7B7803F00203002B13D07E
:104BF000FA887B89D31A9BB218B2BA88BB89D31AB8
:104C00009BB219B2BB895B009AB23B8D13449BB235
:104C10001AB2BB8DFFF7F8FEFB897B813B8ABB8113
:104C2000B7F91020B7F90E309A42FFF663AF00BF14
:104C300000BF1C37BD4690BD90B585B002AF04469D
:104C4000084611461A462346FB800346BB800B46A6
:104C50007B8013463B80BA887B88D31A9BB219B2FB
:104C60007B885B009BB201339BB21AB23B88B7F9D9
:104C70000600FFF7C9FEB7F90220B7F90410B7F92B
:104C800006003B880193002300930323FFF706FFF0
:104C900000BF0C37BD4690BD90B583B000AF044651
:104CA000084611461A462346FB800346BB800B4646
:104CB0007B8013463B803B8BB7F90220B7F9041089
:104CC000B7F90600FFF7C5FEBA883B8813449BB2CC
:104CD000013B9BB219B23B8BB7F90220B7F9060032
:104CE000FFF7B7FE3B8BB7F90020B7F90410B7F90F
:104CF0000600FFF789FEFA887B8813449BB2013BCC
:104D00009BB218B23B8BB7F90020B7F90410FFF73C
:104D10007BFE00BF0C37BD4690BD90B58FB000AF95
:104D20000446084611461A462346FB800346BB80CC
:104D30000B467B8013463B80B7F90420B7F900305F
:104D40009A420BDDBB88FB843B88BB80FB8C3B809D
:104D5000FB88BB847B88FB80BB8C7B80B7F9002001
:104D6000B7F94C309A420FDDB7F84C307B843B8862
:104D7000A7F84C307B8C3B80B7F848303B847B886D
:104D8000A7F848303B8C7B80B7F90420B7F9003096
:104D90009A420BDDBB88FB833B88BB80FB8B3B804F
:104DA000FB88BB837B88FB80BB8B7B80B7F90420AF
:104DB000B7F94C309A4237D1FB88BB86BB8EFB8655
:104DC000B7F90220B7F936309A4202DA7B88FB86BF
:104DD00007E0B7F90220B7F934309A4201DD7B8849
:104DE000BB86B7F94820B7F936309A4203DAB7F8EC
:104DF0004830FB8608E0B7F94820B7F934309A42CA
:104E000002DDB7F84830BB86BA8EFB8ED31A9BB250
:104E100001339BB21AB2B7F85030B7F90410B7F9A2
:104E20003600FFF716FED4E07A88FB88D31A9BB2CF
:104E30007B833A88BB88D31A9BB23B83B7F8482060
:104E4000FB88D31A9BB2FB82B7F84C20BB88D31ADD
:104E50009BB2BB82B7F848207B88D31A9BB27B8277
:104E6000B7F84C203B88D31A9BB23B820023FB62ED
:104E70000023BB62B7F90020B7F94C309A4202D147
:104E80003B883B8603E03B88013B9BB23B86BB886B
:104E90007B863EE0B7F91830FA6A92FBF3F39AB2D8
:104EA000FB8813449BB2FB86B7F91430BA6A92FBB5
:104EB000F3F39AB2FB8813449BB2BB86B7F91A305E
:104EC000FA6A1344FB62B7F91630BA6A1344BB623C
:104ED000B7F93620B7F934309A4205DDFB8EBB8135
:104EE000BB8EFB86BB89BB86BA8EFB8ED31A9BB268
:104EF00001339BB21AB2B7F85030B7F93210B7F994
:104F00003600FFF7A6FDB7F932309BB201339BB2F2
:104F10007B86B7F93220B7F930309A42BADDB7F95B
:104F20001230B7F93210B7F900208A1A02FB03F3E6
:104F3000FB62B7F91630B7F93210B7F904208A1AB4
:104F400002FB03F3BB623EE0B7F91030FA6A92FB52
:104F5000F3F39AB27B8813449BB2FB86B7F9143003
:104F6000BA6A92FBF3F39AB2FB8813449BB2BB86F6
:104F7000B7F91230FA6A1344FB62B7F91630BA6A0D
:104F80001344BB62B7F93620B7F934309A4205DDD5
:104F9000FB8EFB81BB8EFB86FB89BB86BA8EFB8EAC
:104FA000D31A9BB201339BB21AB2B7F85030B7F99B
:104FB0003210B7F93600FFF74CFDB7F932309BB22B
:104FC00001339BB27B86B7F93220B7F94C309A4255
:104FD000BADD3C37BD4690BD80B588B000AF034612
:104FE000FB800B46BB8013467B80FA88BB8813444A
:104FF0009AB27B8813449BB203F20513FB83FB8BAD
:105000005B42FB837E233B81FF237B810623BB81A5
:10501000FB88FB8100233B82BB887B827B88BB8231
:10502000FB8B1B0A9BB2FB82FB8BDBB29BB23B83ED
:10503000EF237B8307F108010A2300220348FDF7D1
:1050400061F900BF2037BD4680BD00BF0038014078
:1050500080B588B000AF0346FB71022200213F20DB
:10506000FFF7BAFFFB799BB21A4600210620FFF733
:10507000B3FF07F10C01032300220648FDF78AF96C
:10508000FB89FE2B01D1002300E0012318462037C5
:10509000BD4680BD0038014080B586B000AF3B1DE5
:1050A00000221A605A609A60DA601A6105E0391DC0
:1050B000032300220548FDF76DF93B89002BF6D04C
:1050C00000BF00BF1837BD4680BD00BF003801409B
:1050D00080B500AF002200210120FFF77DFF00BF57
:1050E00080BD80B500AF002200210E20FFF774FFC5
:1050F00000BF80BD80B500AF002200210220FFF775
:105100006BFF00BF80BD80B500AF002200210D20E5
:10511000FFF762FF00BF80BD80B582B000AF0346DD
:10512000FB71FB799BB21A4600210620FFF754FF62
:1051300000BF0837BD4680BD80B582B000AF0346D2
:10514000FB71FB790133FB71FB799BB21A4600219D
:105150000320FFF741FF00BF0837BD4680BD0000B8
:1051600080B483B000AF0346FB71FB79034A52F869
:10517000233018460C37BD4680BC704730000020F5
:1051800080B500AF002208210248FCF747FB00BFB2
:1051900080BD00BF0008014080B500AF012208219A
:1051A0000248FCF73BFB00BF80BD00BF0008014088
:1051B00080B500AF002204210648FCF72FFB06480B
:1051C000FCF704FF012204210248FCF727FB00BF83
:1051D00080BD00BF000801400000A04080B582B043
:1051E00000AF0346FB71002210210648FCF716FBB6
:1051F000FB1D012219460448FCF74CFE00BF08378E
:10520000BD4680BD000801400030014080B582B03D
:1052100000AF78603960012210210748FCF7FEFAE0
:105220003B689BB21A4679680448FCF733FE00BF1E
:105230000837BD4680BD00BF000801400030014076
:1052400080B584B000AF78607B685A1C7A601B78A8
:10525000FB7338E07B685A1C7A601B78FB72FB7A20
:105260001846FFF7BBFF7B685A1C7A601B78BB723D
:10527000BB7A9BB203F08003BB81BB7A03F07F0350
:10528000BB72BB7A002B08D0BB7A19467868FFF74F
:10529000BDFFBB7A7A6813447B60BB89002B12D0B8
:1052A0007B685A1C7A601B78BB81BB89FF2B02D1BB
:1052B0004FF4FA73BB81BB891846FBF7CBFC03465E
:1052C0001846FCF783FEFB7B5A1EFA73002BC1D1F4
:1052D00000BF00BF1037BD4680BD90B585B000AFA0
:1052E0000446084611461A462346FB710346BB7125
:1052F0000B467B7113463B712A20FFF76FFF00239B
:105300003B73FB797B730023BB737B79FB7307F1E2
:105310000C0304211846FFF779FF2B20FFF75EFFEF
:10532000BB797B733B79FB7307F10C0304211846AF
:10533000FFF76CFF2C20FFF751FF00BF1437BD466D
:1053400090BD000080B500AFFFF71AFFFFF730FFF8
:105350000648FFF775FF0648FFF772FF0548FFF79D
:105360006FFFFFF719FF00BF80BD00BF3CB300080F
:1053700078B3000888B3000880B584B000AF034656
:10538000FB800B46BB8013467B80FB889F2B23D87A
:10539000BB887F2B20D8FFF7F3FEFB88D8B2BB88F1
:1053A000D9B2FB88DBB20133DAB2BB88DBB201339E
:1053B000DBB2FFF792FF7B881B0A9BB2DBB23B7329
:1053C0007B88DBB27B7307F10C0302211846FFF7E1
:1053D0001DFFFFF7E1FE00E000BF1037BD4680BDB6
:1053E00082B090B589B000AF7B630346FB800B466B
:1053F000BB801346FB70FB88D8B2BB88D9B2FB8850
:10540000DAB297F834301344DBB2013BDCB2BB882C
:10541000DAB297F835301344DBB2013BDBB22246F7
:10542000FFF75BFF0023FB6143E0BA6BFB78203B97
:1054300097F8351001FB03F31946FB690B445B0039
:1054400013441B887B610023BB6129E07A69BB6937
:1054500002FA03F303F40043002B0ED0BB8F1B0AA8
:105460009BB2DBB23B74BB8FDBB27B7407F11003E2
:1054700002211846FFF7CAFE0FE0B7F840301B0ABA
:105480009BB2DBB23B73B7F84030DBB27B7307F102
:105490000C0302211846FFF7B9FEBB690133BB615B
:1054A00097F834301A46BB699342CFD3FB69013376
:1054B000FB6197F835301A46FB699342B5D300BFBC
:1054C00000BF2437BD46BDE8904002B0704782B0AF
:1054D00080B586B004AF3A607B610346FB800B4623
:1054E000BB80FFF74DFE2DE0FB883A7D13449F2BD8
:1054F00013DD0023FB807B7D9AB2BB881344BB8005
:10550000BB887A7D13447F2B21DC3B681B78202BE2
:1055100003D13B6801333B6014E03B681A78B988DB
:10552000F8883B8C0293BB8B0193BB6900937B692A
:10553000FFF756FF3B7D9AB2FB881344FB803B6824
:1055400001333B603B681B78002BCDD100E000BFEE
:10555000FFF722FE00BF0837BD46BDE8804002B01D
:105560007047000090B585B000AF0446084611466C
:105570001A462346FB800346BB800B467B801346BE
:105580003B80FB889F2B56D8BB887F2B53D8FA884B
:105590007B881344A02B03DDFB88C3F1A0037B8031
:1055A000BA883B881344802B03DDBB88C3F180039A
:1055B0003B80FFF7E5FDFB88D8B2BB88D9B2FB88FA
:1055C000DAB27B88DBB21344DBB2013BDCB2BB88CE
:1055D000DAB23B88DBB21344DBB2013BDBB22246DA
:1055E000FFF77BFE3B8C1B0A9BB2DBB23B733B8C11
:1055F000DBB27B73012210211148FCF70FF93B88C5
:10560000BB8012E07B88FB8009E007F10C030222DB
:1056100019460C48FCF73EFCFB88013BFB80FB88ED
:10562000002BF2D1BB88013BBB80BB88002BE9D1AA
:10563000FFF7B2FD00E000BF1437BD4690BD00BFCC
:10564000000801400030014080B584B002AF03463D
:10565000FB80FB8800938023A02200210020FFF71D
:1056600081FF00BF0837BD4680BD90B583B000AF55
:105670000446084611461A462346FB800346BB8073
:105680000B467B8013463B80FB889F2B31D8BB8821
:105690007F2B2ED8FA887B881344A02B2BDCBA886A
:1056A0003B881344802B28DCFFF76AFDFB88D8B2C7
:1056B000BB88D9B2FB88DAB27B88DBB21344DBB299
:1056C000013BDCB2BB88DAB23B88DBB21344DBB20D
:1056D000013BDBB22246FFF700FE7B883A8802FBE3
:1056E00003F35B001946B869FFF790FDFFF754FD1F
:1056F00004E000BF02E000BF00E000BF0C37BD4681
:1057000090BD000080B594B004AFFCF789FF03465C
:10571000C44A1360FCF784FF0346C34A1360FCF7D6
:105720007FFF0346C14A1360FCF77AFF0346C04A75
:105730001360C04B01930123009300234FF40072C8
:10574000BD49BE48FDF786FCBD4B01930123009384
:1057500000238022BB49BC48FDF77CFCBB4B019376
:105760000123009300238022B949BA48FDF772FC57
:10577000B94B01930223009300238022B749B84814
:10578000FDF768FCB74B01930123009300238022AF
:10579000B549B648FDF75EFCB54B01930123009374
:1057A00000238022B349B448FDF754FC00220421B1
:1057B0000120FDF7A3F90346B04A1360002204213B
:1057C0000120FDF79BF90346AD4A1360FCF72CF965
:1057D00002210220FCF7A0F903210220FCF79CF92A
:1057E00005210220FCF798F900210220FCF794F92A
:1057F0000C210220FCF790F90E210220FCF78CF915
:1058000009210220FCF788F900210120FCF784F926
:105810004FF416537B6200237B630023BB6300239A
:10582000FB630023FB620023BB6200233B630C236A
:105830003B6207F1200319469248FCF7E3FC9148CC
:10584000FCF7D8FD0023FB8204233B814FF4404347
:105850007B810023FB810023BB8100233B834FF42A
:105860004073BB820023FB6100237B8200233B82C9
:1058700007F1080319468448FCF7EEF98248FCF763
:1058800045FA0423BB710223FB710423BB803B1D3B
:1058900019467E48FBF72AFF0423BB710223FB71E4
:1058A0000823BB803B1D19467848FBF71FFF0423E4
:1058B000BB710223FB711023BB803B1D194673484B
:1058C000FBF714FF002204217048FBF7A7FF00221A
:1058D00008216E48FBF7A2FF002210216B48FBF75E
:1058E0009DFF0123BB710223FB714023BB803B1D45
:1058F00019466748FBF7FAFE0223BB710223FB71CE
:105900008023BB803B1D19466148FBF7EFFE022355
:10591000BB710223FB714FF48073BB803B1D1946A2
:105920005B48FBF7E3FE0223BB710223FB714FF4DC
:105930000073BB803B1D19465548FBF7D7FE022379
:10594000BB710223FB714FF40063BB803B1D194602
:105950004E48FBF7CBFE0223BB710223FB714FF4D1
:105960008053BB803B1D19464848FBF7BFFE4EF6EF
:105970006020FBF7A3FFFFF7E5FC01224349454800
:10598000FBF782FC012241494248FBF7F7FC034642
:10599000414A1360404B1B6840F6C872934203D9DA
:1059A0003D4B40F6C8721A603B4B1A6813469B0089
:1059B0001344DB00DB08394AA2FB03239B080A33AC
:1059C000354A1360364B00938023A022002100202B
:1059D000FFF74BFE4EF66020FBF7ACFFFEF7DEFE56
:1059E0000F20FFF735FB0346002B40F0CD804FF62C
:1059F000FF73009343237E2224211320FEF731FFFF
:105A00001F2300933A23742229211820FFF744F919
:105A1000244B4FF6FF7202921F2201925A680092A5
:105A20001B6841E0EC470020F0470020F4470020CD
:105A3000F8470020D4470020C49D0008A95B000857
:105A4000D8470020D49D000891600008DC47002062
:105A5000E09D000861620008E0470020F09D00081A
:105A6000AD640008E4470020049E000819660008A1
:105A7000E8470020109E00088D660008FC470020C3
:105A8000004800200038014000300140000801407B
:105A9000000C014000240140CC470020D718070229
:105AA000B4B30008580000203C4A38212020FFF7FA
:105AB0000EFD1F23029358230193552300934E2379
:105AC0004B2258214120FFF728F94FF6FF7300932E
:105AD0000423022251214B20FEF7C3FE4FF6FF7331
